{
  "_format": "hh-sol-artifact-1",
  "contractName": "Pool",
  "sourceName": "contracts/Pool.sol",
  "abi": [
    {
      "inputs": [
        {
          "internalType": "address",
          "name": "_token0",
          "type": "address"
        },
        {
          "internalType": "address",
          "name": "_token1",
          "type": "address"
        }
      ],
      "stateMutability": "nonpayable",
      "type": "constructor"
    },
    {
      "inputs": [
        {
          "internalType": "uint256",
          "name": "_amount0",
          "type": "uint256"
        },
        {
          "internalType": "uint256",
          "name": "_amount1",
          "type": "uint256"
        }
      ],
      "name": "addLiquidity",
      "outputs": [],
      "stateMutability": "nonpayable",
      "type": "function"
    },
    {
      "inputs": [
        {
          "internalType": "address",
          "name": "",
          "type": "address"
        }
      ],
      "name": "balanceOf",
      "outputs": [
        {
          "internalType": "uint256",
          "name": "",
          "type": "uint256"
        }
      ],
      "stateMutability": "view",
      "type": "function"
    },
    {
      "inputs": [],
      "name": "reserve0",
      "outputs": [
        {
          "internalType": "uint256",
          "name": "",
          "type": "uint256"
        }
      ],
      "stateMutability": "view",
      "type": "function"
    },
    {
      "inputs": [],
      "name": "reserve1",
      "outputs": [
        {
          "internalType": "uint256",
          "name": "",
          "type": "uint256"
        }
      ],
      "stateMutability": "view",
      "type": "function"
    },
    {
      "inputs": [
        {
          "internalType": "address",
          "name": "_tokenIn",
          "type": "address"
        },
        {
          "internalType": "uint256",
          "name": "_amountIn",
          "type": "uint256"
        }
      ],
      "name": "swap",
      "outputs": [
        {
          "internalType": "uint256",
          "name": "amountOut",
          "type": "uint256"
        }
      ],
      "stateMutability": "nonpayable",
      "type": "function"
    },
    {
      "inputs": [],
      "name": "token0",
      "outputs": [
        {
          "internalType": "contract IERC20",
          "name": "",
          "type": "address"
        }
      ],
      "stateMutability": "view",
      "type": "function"
    },
    {
      "inputs": [],
      "name": "token1",
      "outputs": [
        {
          "internalType": "contract IERC20",
          "name": "",
          "type": "address"
        }
      ],
      "stateMutability": "view",
      "type": "function"
    },
    {
      "inputs": [],
      "name": "totalSupply",
      "outputs": [
        {
          "internalType": "uint256",
          "name": "",
          "type": "uint256"
        }
      ],
      "stateMutability": "view",
      "type": "function"
    }
  ],
  "bytecode": "0x60c06040523480156200001157600080fd5b506040516200106d3803806200106d833981810160405281019062000037919062000111565b8173ffffffffffffffffffffffffffffffffffffffff1660808173ffffffffffffffffffffffffffffffffffffffff16815250508073ffffffffffffffffffffffffffffffffffffffff1660a08173ffffffffffffffffffffffffffffffffffffffff1681525050505062000158565b600080fd5b600073ffffffffffffffffffffffffffffffffffffffff82169050919050565b6000620000d982620000ac565b9050919050565b620000eb81620000cc565b8114620000f757600080fd5b50565b6000815190506200010b81620000e0565b92915050565b600080604083850312156200012b576200012a620000a7565b5b60006200013b85828601620000fa565b92505060206200014e85828601620000fa565b9150509250929050565b60805160a051610e94620001d960003960008181610290015281816103ce015281816104c8015281816105f8015281816106660152818161087601526109210152600081816101a1015281816101ef01528181610334015281816104730152818161059c015281816106190152818161064501526107dc0152610e946000f3fe608060405234801561001057600080fd5b50600436106100885760003560e01c806370a082311161005b57806370a08231146101055780639cd441da14610135578063d004f0f714610151578063d21220a71461018157610088565b80630dfe16811461008d57806318160ddd146100ab578063443cb4bc146100c95780635a76f25e146100e7575b600080fd5b61009561019f565b6040516100a291906109d4565b60405180910390f35b6100b36101c3565b6040516100c09190610a08565b60405180910390f35b6100d16101c9565b6040516100de9190610a08565b60405180910390f35b6100ef6101cf565b6040516100fc9190610a08565b60405180910390f35b61011f600480360381019061011a9190610a66565b6101d5565b60405161012c9190610a08565b60405180910390f35b61014f600480360381019061014a9190610abf565b6101ed565b005b61016b60048036038101906101669190610aff565b61046f565b6040516101789190610a08565b60405180910390f35b61018961091f565b60405161019691906109d4565b60405180910390f35b7f000000000000000000000000000000000000000000000000000000000000000081565b60025481565b60005481565b60015481565b60036020528060005260406000206000915090505481565b7f000000000000000000000000000000000000000000000000000000000000000073ffffffffffffffffffffffffffffffffffffffff166323b872dd3330856040518463ffffffff1660e01b815260040161024a93929190610b4e565b6020604051808303816000875af1158015610269573d6000803e3d6000fd5b505050506040513d601f19601f8201168201806040525081019061028d9190610bbd565b507f000000000000000000000000000000000000000000000000000000000000000073ffffffffffffffffffffffffffffffffffffffff166323b872dd3330846040518463ffffffff1660e01b81526004016102eb93929190610b4e565b6020604051808303816000875af115801561030a573d6000803e3d6000fd5b505050506040513d601f19601f8201168201806040525081019061032e9190610bbd565b5061046b7f000000000000000000000000000000000000000000000000000000000000000073ffffffffffffffffffffffffffffffffffffffff166370a08231306040518263ffffffff1660e01b815260040161038b9190610bea565b602060405180830381865afa1580156103a8573d6000803e3d6000fd5b505050506040513d601f19601f820116820180604052508101906103cc9190610c1a565b7f000000000000000000000000000000000000000000000000000000000000000073ffffffffffffffffffffffffffffffffffffffff166370a08231306040518263ffffffff1660e01b81526004016104259190610bea565b602060405180830381865afa158015610442573d6000803e3d6000fd5b505050506040513d601f19601f820116820180604052508101906104669190610c1a565b610943565b5050565b60007f000000000000000000000000000000000000000000000000000000000000000073ffffffffffffffffffffffffffffffffffffffff168373ffffffffffffffffffffffffffffffffffffffff16148061051657507f000000000000000000000000000000000000000000000000000000000000000073ffffffffffffffffffffffffffffffffffffffff168373ffffffffffffffffffffffffffffffffffffffff16145b610555576040517f08c379a000000000000000000000000000000000000000000000000000000000815260040161054c90610ca4565b60405180910390fd5b60008211610598576040517f08c379a000000000000000000000000000000000000000000000000000000000815260040161058f90610d10565b60405180910390fd5b60007f000000000000000000000000000000000000000000000000000000000000000073ffffffffffffffffffffffffffffffffffffffff168473ffffffffffffffffffffffffffffffffffffffff1614905060008060008084610643577f00000000000000000000000000000000000000000000000000000000000000007f000000000000000000000000000000000000000000000000000000000000000060015460005461068c565b7f00000000000000000000000000000000000000000000000000000000000000007f00000000000000000000000000000000000000000000000000000000000000006000546001545b93509350935093508373ffffffffffffffffffffffffffffffffffffffff166323b872dd33308a6040518463ffffffff1660e01b81526004016106d193929190610b4e565b6020604051808303816000875af11580156106f0573d6000803e3d6000fd5b505050506040513d601f19601f820116820180604052508101906107149190610bbd565b5060006103e86103e5896107289190610d5f565b6107329190610dd0565b905080836107409190610e01565b818361074c9190610d5f565b6107569190610dd0565b96508373ffffffffffffffffffffffffffffffffffffffff1663a9059cbb33896040518363ffffffff1660e01b8152600401610793929190610e35565b6020604051808303816000875af11580156107b2573d6000803e3d6000fd5b505050506040513d601f19601f820116820180604052508101906107d69190610bbd565b506109137f000000000000000000000000000000000000000000000000000000000000000073ffffffffffffffffffffffffffffffffffffffff166370a08231306040518263ffffffff1660e01b81526004016108339190610bea565b602060405180830381865afa158015610850573d6000803e3d6000fd5b505050506040513d601f19601f820116820180604052508101906108749190610c1a565b7f000000000000000000000000000000000000000000000000000000000000000073ffffffffffffffffffffffffffffffffffffffff166370a08231306040518263ffffffff1660e01b81526004016108cd9190610bea565b602060405180830381865afa1580156108ea573d6000803e3d6000fd5b505050506040513d601f19601f8201168201806040525081019061090e9190610c1a565b610943565b50505050505092915050565b7f000000000000000000000000000000000000000000000000000000000000000081565b81600081905550806001819055505050565b600073ffffffffffffffffffffffffffffffffffffffff82169050919050565b6000819050919050565b600061099a61099561099084610955565b610975565b610955565b9050919050565b60006109ac8261097f565b9050919050565b60006109be826109a1565b9050919050565b6109ce816109b3565b82525050565b60006020820190506109e960008301846109c5565b92915050565b6000819050919050565b610a02816109ef565b82525050565b6000602082019050610a1d60008301846109f9565b92915050565b600080fd5b6000610a3382610955565b9050919050565b610a4381610a28565b8114610a4e57600080fd5b50565b600081359050610a6081610a3a565b92915050565b600060208284031215610a7c57610a7b610a23565b5b6000610a8a84828501610a51565b91505092915050565b610a9c816109ef565b8114610aa757600080fd5b50565b600081359050610ab981610a93565b92915050565b60008060408385031215610ad657610ad5610a23565b5b6000610ae485828601610aaa565b9250506020610af585828601610aaa565b9150509250929050565b60008060408385031215610b1657610b15610a23565b5b6000610b2485828601610a51565b9250506020610b3585828601610aaa565b9150509250929050565b610b4881610a28565b82525050565b6000606082019050610b636000830186610b3f565b610b706020830185610b3f565b610b7d60408301846109f9565b949350505050565b60008115159050919050565b610b9a81610b85565b8114610ba557600080fd5b50565b600081519050610bb781610b91565b92915050565b600060208284031215610bd357610bd2610a23565b5b6000610be184828501610ba8565b91505092915050565b6000602082019050610bff6000830184610b3f565b92915050565b600081519050610c1481610a93565b92915050565b600060208284031215610c3057610c2f610a23565b5b6000610c3e84828501610c05565b91505092915050565b600082825260208201905092915050565b7f696e76616c696420746f6b656e00000000000000000000000000000000000000600082015250565b6000610c8e600d83610c47565b9150610c9982610c58565b602082019050919050565b60006020820190508181036000830152610cbd81610c81565b9050919050565b7f616d6f756e7420696e203d203000000000000000000000000000000000000000600082015250565b6000610cfa600d83610c47565b9150610d0582610cc4565b602082019050919050565b60006020820190508181036000830152610d2981610ced565b9050919050565b7f4e487b7100000000000000000000000000000000000000000000000000000000600052601160045260246000fd5b6000610d6a826109ef565b9150610d75836109ef565b9250828202610d83816109ef565b91508282048414831517610d9a57610d99610d30565b5b5092915050565b7f4e487b7100000000000000000000000000000000000000000000000000000000600052601260045260246000fd5b6000610ddb826109ef565b9150610de6836109ef565b925082610df657610df5610da1565b5b828204905092915050565b6000610e0c826109ef565b9150610e17836109ef565b9250828201905080821115610e2f57610e2e610d30565b5b92915050565b6000604082019050610e4a6000830185610b3f565b610e5760208301846109f9565b939250505056fea2646970667358221220a06476c010000dc971c3d688f166731174d0df6b0e4ef923318aee1ca483137064736f6c63430008130033",
  "linkReferences": {},
  "deployedLinkReferences": {}
}